:0300000002087B78
:0C087B00787FE4F6D8FD758109020820A2
:10085800E4FDFCC3ED9FEC9E50070DBD00010C802C
:01086800F29D
:01086900226C
:06088700E4FF0FBFA7FC17
:01088D002248
:06088E00E4FF0FBF85FC32
:010894002241
:10083F00E4FDFCC290120887D2901208870DBD000C
:08084F00010CBC03EEBDE8EB57
:01085700227E
:10086A00E4FEC29012088ED29012088E0EBEFAF2E0
:01087A00225B
:1008000020B0067508007509017FE87E03120858BC
:1008100020B1067508007509027FE87E03020858BA
:10082000E4F508F509120800E50870F9E50924FE69
:0F08300060080470F012083F80EB12086A80E63F
:00000001FF
